:020000040000FA
:06000000D9EF00F0120030
:020006000000F8
:0800080005D80ED833D856D8F4
:10001000FCD71200720ED36E030E946E936A010E1B
:10002000C26E0E0EC16E12008250010B08E18250AA
:10003000020B05E181808192819481961AD08250D1
:10004000010B08E18250020B05E0819081828194CE
:1000500081960FD08250010B08E08250020B05E11F
:10006000819081928184819604D081908192819443
:1000700081861200D9CFE6FFE1CFD9FF020EE1263B
:10008000E66A1DD8E552F3CFDEFFF4CFDDFFD9CF0E
:10009000E9FFDACFEAFF000ED880EE54020EED54ED
:1000A00002E2828401D08294020EE15C02E2E16A03
:1000B000E552E16EE552E7CFD9FF12001200D9CF29
:1000C000E6FFE1CFD9FFFE0EDB50040DF35001092E
:1000D000C26EC2A2FED7C450000EF350C324026EFB
:1000E000036A02C0F3FF03C0F4FF00D0E552E7CF7C
:0400F000D9FF120022
:0C00F400060EF66E000EF76E000EF86EA1
:1001000000010900F550656F0900F550666F03E1C5
:10011000656701D03DD00900F550606F0900F550CA
:10012000616F0900F550626F09000900F550E96E32
:100130000900F550EA6E090009000900F550636FE7
:100140000900F550646F09000900F6CF67F0F7CF9A
:1001500068F0F8CF69F060C0F6FF61C0F7FF62C0D9
:10016000F8FF0001635302E1645307E00900F55012
:10017000EE6E6307F8E26407F9D767C0F6FF68C060
:10018000F7FF69C0F8FF00016507000E665BBFD787
:0201900012005B
:0E019200000EF36E00EE00F0080E01D8120011
:1001A000EA6002D0EE6AFCD7F350E9601200EE6A12
:0201B000FCD77A
:0E01B20013EE00F023EE00F0F86A019C7AECE8
:0E01C00000F0E7EC00F004EC00F0FBD71200BA
:0201CE0012001D
:00000001FF
