:020000040000FA
:060000000DEF01F01200FB
:0A0006000100540200006A0000002F
:040010000A000000E2
:0C001400D9CFE6FFE1CFD9FF020EE126B4
:10002000FD0EDBCF10F0DB06FE0EDBCF11F001E2A0
:10003000DB061050111014E0DE6ADD6ADECF10F02E
:10004000DDCF11F0D890115004E6F40E105C010ED3
:10005000115805E2DF2A010E01E3DB2AEFD7E0D7D2
:10006000020EE15C02E2E16AE552E16EE552E7CFA1
:10007000D9FF1200D9CFE6FFE1CFD9FF050EE12667
:10008000DF6A936A896A92909292DF6A640EDF5CFB
:1000900057E20A0E106E10C00CF0DFCF07F01BEC19
:1000A00001F0010E07C0DBFF0A0E106E10C00CF04D
:1000B000DFCF07F01BEC01F0020E03C0DBFF030EE5
:1000C000DB6A040EDB6A030EDBCF10F0040EDBCF1D
:1000D00011F0640E105C000E115830E28980899294
:1000E000010EDB50EA6A6A0FE96E000EEA22EF5059
:1000F0008A6E020EE66EE66A8DDFE552E552899061
:100100008982020EDB50EA6A6A0FE96E000EEA226B
:10011000EF508A6E020EE66EE66A7CDFE552E5522B
:1001200089908992020EE66EE66A74DFE552E55226
:10013000030EDB2A040E01E3DB2AC5D7DF2AA6D78C
:10014000A4D7F36AF46A050EE15C03E200D0E16A29
:0C015000E552E16EE552E7CFD9FF120046
:04015C00060EF66E27
:10016000000EF76E000EF86E00010900F550656F85
:100170000900F550666F03E1656701D03DD00900C5
:10018000F550606F0900F550616F0900F550626F1E
:1001900009000900F550E96E0900F550EA6E090002
:1001A00009000900F550636F0900F550646F0900FC
:1001B0000900F6CF67F0F7CF68F0F8CF69F060C0BC
:1001C000F6FF61C0F7FF62C0F8FF0001635302E170
:1001D000645307E00900F550EE6E6307F8E2640728
:1001E000F9D767C0F6FF68C0F7FF69C0F8FF0001E4
:0A01F0006507000E665BBFD7120022
:0601FA00000EF36E00EEA2
:1002000000F0080E01D81200EA6002D0EE6AFCD7B6
:0A021000F350E9601200EE6AFCD71B
:06021A0013EE00F023EEDC
:1002200000F0F86A0F9CAEEC00F029EC01F03AEC1B
:0602300000F0FBD71200F4
:0A023600036A080EE76ED890073641
:1002400003360C50035C02E3036E072AE72EF7D750
:0202500012009A
:02025200120098
:0A0254003F065B4F666D7D077F6F6C
:00000001FF
